{
  "contractName": "CourseMarketplace",
  "abi": [
    {
      "inputs": [],
      "stateMutability": "nonpayable",
      "type": "constructor"
    },
    {
      "inputs": [],
      "name": "CourseHasOwner",
      "type": "error"
    },
    {
      "inputs": [],
      "name": "CourseIsNotCreated",
      "type": "error"
    },
    {
      "inputs": [],
      "name": "InvalidState",
      "type": "error"
    },
    {
      "inputs": [],
      "name": "OnlyOwner",
      "type": "error"
    },
    {
      "inputs": [],
      "name": "SenderIsNotCourseOwner",
      "type": "error"
    },
    {
      "inputs": [],
      "name": "isStopped",
      "outputs": [
        {
          "internalType": "bool",
          "name": "",
          "type": "bool"
        }
      ],
      "stateMutability": "view",
      "type": "function",
      "constant": true
    },
    {
      "stateMutability": "payable",
      "type": "receive",
      "payable": true
    },
    {
      "inputs": [
        {
          "internalType": "uint256",
          "name": "amount",
          "type": "uint256"
        }
      ],
      "name": "withdraw",
      "outputs": [],
      "stateMutability": "nonpayable",
      "type": "function"
    },
    {
      "inputs": [],
      "name": "emergencyWithdraw",
      "outputs": [],
      "stateMutability": "nonpayable",
      "type": "function"
    },
    {
      "inputs": [],
      "name": "selfDestruct",
      "outputs": [],
      "stateMutability": "nonpayable",
      "type": "function"
    },
    {
      "inputs": [],
      "name": "stopContract",
      "outputs": [],
      "stateMutability": "nonpayable",
      "type": "function"
    },
    {
      "inputs": [],
      "name": "resumeContract",
      "outputs": [],
      "stateMutability": "nonpayable",
      "type": "function"
    },
    {
      "inputs": [
        {
          "internalType": "address",
          "name": "newOwner",
          "type": "address"
        }
      ],
      "name": "transferOwnership",
      "outputs": [],
      "stateMutability": "nonpayable",
      "type": "function"
    },
    {
      "inputs": [],
      "name": "getContractOwner",
      "outputs": [
        {
          "internalType": "address",
          "name": "",
          "type": "address"
        }
      ],
      "stateMutability": "view",
      "type": "function",
      "constant": true
    },
    {
      "inputs": [
        {
          "internalType": "bytes16",
          "name": "courseId",
          "type": "bytes16"
        },
        {
          "internalType": "bytes32",
          "name": "proof",
          "type": "bytes32"
        }
      ],
      "name": "purchaseCourse",
      "outputs": [],
      "stateMutability": "payable",
      "type": "function",
      "payable": true
    },
    {
      "inputs": [
        {
          "internalType": "bytes32",
          "name": "courseHash",
          "type": "bytes32"
        }
      ],
      "name": "repurchaseCourse",
      "outputs": [],
      "stateMutability": "payable",
      "type": "function",
      "payable": true
    },
    {
      "inputs": [
        {
          "internalType": "bytes32",
          "name": "courseHash",
          "type": "bytes32"
        }
      ],
      "name": "activateCourse",
      "outputs": [],
      "stateMutability": "nonpayable",
      "type": "function"
    },
    {
      "inputs": [
        {
          "internalType": "bytes32",
          "name": "courseHash",
          "type": "bytes32"
        }
      ],
      "name": "deactivateCourse",
      "outputs": [],
      "stateMutability": "nonpayable",
      "type": "function"
    },
    {
      "inputs": [],
      "name": "getCourseCount",
      "outputs": [
        {
          "internalType": "uint256",
          "name": "",
          "type": "uint256"
        }
      ],
      "stateMutability": "view",
      "type": "function",
      "constant": true
    },
    {
      "inputs": [
        {
          "internalType": "uint256",
          "name": "index",
          "type": "uint256"
        }
      ],
      "name": "getCourseHashAtIndex",
      "outputs": [
        {
          "internalType": "bytes32",
          "name": "",
          "type": "bytes32"
        }
      ],
      "stateMutability": "view",
      "type": "function",
      "constant": true
    },
    {
      "inputs": [
        {
          "internalType": "bytes32",
          "name": "courseHash",
          "type": "bytes32"
        }
      ],
      "name": "getCourseByHash",
      "outputs": [
        {
          "components": [
            {
              "internalType": "uint256",
              "name": "id",
              "type": "uint256"
            },
            {
              "internalType": "uint256",
              "name": "price",
              "type": "uint256"
            },
            {
              "internalType": "bytes32",
              "name": "proof",
              "type": "bytes32"
            },
            {
              "internalType": "address",
              "name": "owner",
              "type": "address"
            },
            {
              "internalType": "enum CourseMarketplace.State",
              "name": "state",
              "type": "uint8"
            }
          ],
          "internalType": "struct CourseMarketplace.Course",
          "name": "",
          "type": "tuple"
        }
      ],
      "stateMutability": "view",
      "type": "function",
      "constant": true
    }
  ],
  "bytecode": "0x608060405260008060006101000a81548160ff02191690831515021790555034801561002a57600080fd5b5061003a3361003f60201b60201c565b610083565b80600460006101000a81548173ffffffffffffffffffffffffffffffffffffffff021916908373ffffffffffffffffffffffffffffffffffffffff16021790555050565b6117da806100926000396000f3fe6080604052600436106100ec5760003560e01c80636d11290b1161008a578063c4bc5da511610059578063c4bc5da5146102b8578063d76821cb146102cf578063db2e21bc146102eb578063f2fde38b14610302576100f3565b80636d11290b14610210578063935d7e6d1461024d57806396cfda06146102765780639cb8a26a146102a1576100f3565b80633f683b6a116100c65780633f683b6a14610161578063442890d51461018c5780636136e1eb146101b757806362e4e6ac146101d3576100f3565b806312253a6c146100f85780632e1a7d4d1461010f5780633926257214610138576100f3565b366100f357005b600080fd5b34801561010457600080fd5b5061010d61032b565b005b34801561011b57600080fd5b50610136600480360381019061013191906111db565b6103b3565b005b34801561014457600080fd5b5061015f600480360381019061015a919061123e565b6104f1565b005b34801561016d57600080fd5b5061017661066b565b6040516101839190611286565b60405180910390f35b34801561019857600080fd5b506101a161067c565b6040516101ae91906112e2565b60405180910390f35b6101d160048036038101906101cc919061123e565b6106a6565b005b3480156101df57600080fd5b506101fa60048036038101906101f5919061123e565b6107fb565b6040516102079190611409565b60405180910390f35b34801561021c57600080fd5b50610237600480360381019061023291906111db565b6108d7565b6040516102449190611433565b60405180910390f35b34801561025957600080fd5b50610274600480360381019061026f919061123e565b6108f4565b005b34801561028257600080fd5b5061028b610b4d565b604051610298919061145d565b60405180910390f35b3480156102ad57600080fd5b506102b6610b57565b005b3480156102c457600080fd5b506102cd610c15565b005b6102e960048036038101906102e491906114d0565b610c9d565b005b3480156102f757600080fd5b50610300610e56565b005b34801561030e57600080fd5b506103296004803603810190610324919061153c565b610fad565b005b61033361067c565b73ffffffffffffffffffffffffffffffffffffffff163373ffffffffffffffffffffffffffffffffffffffff1614610397576040517f5fc483c500000000000000000000000000000000000000000000000000000000815260040160405180910390fd5b60016000806101000a81548160ff021916908315150217905550565b6103bb61067c565b73ffffffffffffffffffffffffffffffffffffffff163373ffffffffffffffffffffffffffffffffffffffff161461041f576040517f5fc483c500000000000000000000000000000000000000000000000000000000815260040160405180910390fd5b6000600460009054906101000a900473ffffffffffffffffffffffffffffffffffffffff1673ffffffffffffffffffffffffffffffffffffffff16826040516104679061159a565b60006040518083038185875af1925050503d80600081146104a4576040519150601f19603f3d011682016040523d82523d6000602084013e6104a9565b606091505b50509050806104ed576040517f08c379a00000000000000000000000000000000000000000000000000000000081526004016104e49061160c565b60405180910390fd5b5050565b60008054906101000a900460ff161561050957600080fd5b61051161067c565b73ffffffffffffffffffffffffffffffffffffffff163373ffffffffffffffffffffffffffffffffffffffff1614610575576040517f5fc483c500000000000000000000000000000000000000000000000000000000815260040160405180910390fd5b61057e81611025565b6105b4576040517f4db0c48300000000000000000000000000000000000000000000000000000000815260040160405180910390fd5b6000600160008381526020019081526020016000209050600060028111156105df576105de61132a565b5b8160030160149054906101000a900460ff1660028111156106035761060261132a565b5b1461063a576040517fbaf3f0f700000000000000000000000000000000000000000000000000000000815260040160405180910390fd5b60018160030160146101000a81548160ff021916908360028111156106625761066161132a565b5b02179055505050565b60008054906101000a900460ff1681565b6000600460009054906101000a900473ffffffffffffffffffffffffffffffffffffffff16905090565b60008054906101000a900460ff16156106be57600080fd5b6106c781611025565b6106fd576040517f4db0c48300000000000000000000000000000000000000000000000000000000815260040160405180910390fd5b61070681611094565b61073c576040517fcce31cc400000000000000000000000000000000000000000000000000000000815260040160405180910390fd5b60006001600083815260200190815260200160002090506002808111156107665761076561132a565b5b8160030160149054906101000a900460ff16600281111561078a5761078961132a565b5b146107c1576040517fbaf3f0f700000000000000000000000000000000000000000000000000000000815260040160405180910390fd5b60008160030160146101000a81548160ff021916908360028111156107e9576107e861132a565b5b02179055503481600101819055505050565b610803611146565b600160008381526020019081526020016000206040518060a00160405290816000820154815260200160018201548152602001600282015481526020016003820160009054906101000a900473ffffffffffffffffffffffffffffffffffffffff1673ffffffffffffffffffffffffffffffffffffffff1673ffffffffffffffffffffffffffffffffffffffff1681526020016003820160149054906101000a900460ff1660028111156108ba576108b961132a565b5b60028111156108cc576108cb61132a565b5b815250509050919050565b600060026000838152602001908152602001600020549050919050565b60008054906101000a900460ff161561090c57600080fd5b61091461067c565b73ffffffffffffffffffffffffffffffffffffffff163373ffffffffffffffffffffffffffffffffffffffff1614610978576040517f5fc483c500000000000000000000000000000000000000000000000000000000815260040160405180910390fd5b61098181611025565b6109b7576040517f4db0c48300000000000000000000000000000000000000000000000000000000815260040160405180910390fd5b6000600160008381526020019081526020016000209050600060028111156109e2576109e161132a565b5b8160030160149054906101000a900460ff166002811115610a0657610a0561132a565b5b14610a3d576040517fbaf3f0f700000000000000000000000000000000000000000000000000000000815260040160405180910390fd5b60008160030160009054906101000a900473ffffffffffffffffffffffffffffffffffffffff1673ffffffffffffffffffffffffffffffffffffffff168260010154604051610a8b9061159a565b60006040518083038185875af1925050503d8060008114610ac8576040519150601f19603f3d011682016040523d82523d6000602084013e610acd565b606091505b5050905080610b11576040517f08c379a0000000000000000000000000000000000000000000000000000000008152600401610b0890611678565b60405180910390fd5b60028260030160146101000a81548160ff02191690836002811115610b3957610b3861132a565b5b021790555060008260010181905550505050565b6000600354905090565b60008054906101000a900460ff16610b6e57600080fd5b610b7661067c565b73ffffffffffffffffffffffffffffffffffffffff163373ffffffffffffffffffffffffffffffffffffffff1614610bda576040517f5fc483c500000000000000000000000000000000000000000000000000000000815260040160405180910390fd5b600460009054906101000a900473ffffffffffffffffffffffffffffffffffffffff1673ffffffffffffffffffffffffffffffffffffffff16ff5b610c1d61067c565b73ffffffffffffffffffffffffffffffffffffffff163373ffffffffffffffffffffffffffffffffffffffff1614610c81576040517f5fc483c500000000000000000000000000000000000000000000000000000000815260040160405180910390fd5b60008060006101000a81548160ff021916908315150217905550565b60008054906101000a900460ff1615610cb557600080fd5b60008233604051602001610cca929190611701565b604051602081830303815290604052805190602001209050610ceb81611094565b15610d22576040517fb0fc2d9700000000000000000000000000000000000000000000000000000000815260040160405180910390fd5b600060036000815480929190610d379061175c565b9190505590508160026000838152602001908152602001600020819055506040518060a001604052808281526020013481526020018481526020013373ffffffffffffffffffffffffffffffffffffffff16815260200160006002811115610da257610da161132a565b5b8152506001600084815260200190815260200160002060008201518160000155602082015181600101556040820151816002015560608201518160030160006101000a81548173ffffffffffffffffffffffffffffffffffffffff021916908373ffffffffffffffffffffffffffffffffffffffff16021790555060808201518160030160146101000a81548160ff02191690836002811115610e4857610e4761132a565b5b021790555090505050505050565b610e5e61067c565b73ffffffffffffffffffffffffffffffffffffffff163373ffffffffffffffffffffffffffffffffffffffff1614610ec2576040517f5fc483c500000000000000000000000000000000000000000000000000000000815260040160405180910390fd5b60016000806101000a81548160ff0219169083151502179055506000600460009054906101000a900473ffffffffffffffffffffffffffffffffffffffff1673ffffffffffffffffffffffffffffffffffffffff1647604051610f249061159a565b60006040518083038185875af1925050503d8060008114610f61576040519150601f19603f3d011682016040523d82523d6000602084013e610f66565b606091505b5050905080610faa576040517f08c379a0000000000000000000000000000000000000000000000000000000008152600401610fa19061160c565b60405180910390fd5b50565b610fb561067c565b73ffffffffffffffffffffffffffffffffffffffff163373ffffffffffffffffffffffffffffffffffffffff1614611019576040517f5fc483c500000000000000000000000000000000000000000000000000000000815260040160405180910390fd5b61102281611102565b50565b60008073ffffffffffffffffffffffffffffffffffffffff166001600084815260200190815260200160002060030160009054906101000a900473ffffffffffffffffffffffffffffffffffffffff1673ffffffffffffffffffffffffffffffffffffffff1614159050919050565b60003373ffffffffffffffffffffffffffffffffffffffff166001600084815260200190815260200160002060030160009054906101000a900473ffffffffffffffffffffffffffffffffffffffff1673ffffffffffffffffffffffffffffffffffffffff16149050919050565b80600460006101000a81548173ffffffffffffffffffffffffffffffffffffffff021916908373ffffffffffffffffffffffffffffffffffffffff16021790555050565b6040518060a00160405280600081526020016000815260200160008019168152602001600073ffffffffffffffffffffffffffffffffffffffff1681526020016000600281111561119a5761119961132a565b5b81525090565b600080fd5b6000819050919050565b6111b8816111a5565b81146111c357600080fd5b50565b6000813590506111d5816111af565b92915050565b6000602082840312156111f1576111f06111a0565b5b60006111ff848285016111c6565b91505092915050565b6000819050919050565b61121b81611208565b811461122657600080fd5b50565b60008135905061123881611212565b92915050565b600060208284031215611254576112536111a0565b5b600061126284828501611229565b91505092915050565b60008115159050919050565b6112808161126b565b82525050565b600060208201905061129b6000830184611277565b92915050565b600073ffffffffffffffffffffffffffffffffffffffff82169050919050565b60006112cc826112a1565b9050919050565b6112dc816112c1565b82525050565b60006020820190506112f760008301846112d3565b92915050565b611306816111a5565b82525050565b61131581611208565b82525050565b611324816112c1565b82525050565b7f4e487b7100000000000000000000000000000000000000000000000000000000600052602160045260246000fd5b6003811061136a5761136961132a565b5b50565b600081905061137b82611359565b919050565b600061138b8261136d565b9050919050565b61139b81611380565b82525050565b60a0820160008201516113b760008501826112fd565b5060208201516113ca60208501826112fd565b5060408201516113dd604085018261130c565b5060608201516113f0606085018261131b565b5060808201516114036080850182611392565b50505050565b600060a08201905061141e60008301846113a1565b92915050565b61142d81611208565b82525050565b60006020820190506114486000830184611424565b92915050565b611457816111a5565b82525050565b6000602082019050611472600083018461144e565b92915050565b60007fffffffffffffffffffffffffffffffff0000000000000000000000000000000082169050919050565b6114ad81611478565b81146114b857600080fd5b50565b6000813590506114ca816114a4565b92915050565b600080604083850312156114e7576114e66111a0565b5b60006114f5858286016114bb565b925050602061150685828601611229565b9150509250929050565b611519816112c1565b811461152457600080fd5b50565b60008135905061153681611510565b92915050565b600060208284031215611552576115516111a0565b5b600061156084828501611527565b91505092915050565b600081905092915050565b50565b6000611584600083611569565b915061158f82611574565b600082019050919050565b60006115a582611577565b9150819050919050565b600082825260208201905092915050565b7f5472616e73666572206661696c65642e00000000000000000000000000000000600082015250565b60006115f66010836115af565b9150611601826115c0565b602082019050919050565b60006020820190508181036000830152611625816115e9565b9050919050565b7f5472616e73666572206661696c65642100000000000000000000000000000000600082015250565b60006116626010836115af565b915061166d8261162c565b602082019050919050565b6000602082019050818103600083015261169181611655565b9050919050565b6000819050919050565b6116b36116ae82611478565b611698565b82525050565b60008160601b9050919050565b60006116d1826116b9565b9050919050565b60006116e3826116c6565b9050919050565b6116fb6116f6826112c1565b6116d8565b82525050565b600061170d82856116a2565b60108201915061171d82846116ea565b6014820191508190509392505050565b7f4e487b7100000000000000000000000000000000000000000000000000000000600052601160045260246000fd5b6000611767826111a5565b91507fffffffffffffffffffffffffffffffffffffffffffffffffffffffffffffffff82036117995761179861172d565b5b60018201905091905056fea2646970667358221220ab0b21f96fae2b13134b9e337d98cd51f76396aed27f07ba4ef193b6ef2688b464736f6c634300080d0033",
  "immutableReferences": {},
  "source": "// SPDX-License-Identifier: MIT\r\npragma solidity >=0.4.22 <0.9.0;\r\ncontract CourseMarketplace {\r\n\r\n  constructor() {\r\n    setContractOwner(msg.sender);\r\n  }\r\n\r\n\r\n  modifier onlyOwner() {\r\n    if (msg.sender != getContractOwner()) {\r\n      revert OnlyOwner();\r\n    }\r\n    _;\r\n  }\r\n     modifier onlyWhenNotStopped {\r\n    require(!isStopped);\r\n    _;\r\n  }\r\n\r\n  modifier onlyWhenStopped {\r\n    require(isStopped);\r\n    _;\r\n  }\r\n\r\n  enum State {\r\n    Purchased,\r\n    Activated,\r\n    Deactivated\r\n  }\r\n  struct Course {\r\n    uint id; // 32\r\n    uint price; // 32\r\n    bytes32 proof; // 32\r\n    address owner; // 20\r\n    State state; // 1\r\n  }\r\n\r\n  bool public isStopped = false;\r\n\r\n  // mapping of courseHash to Course data\r\n  mapping(bytes32 => Course) private ownedCourses;\r\n  // mapping of courseID to courseHash\r\n  mapping(uint => bytes32) private ownedCourseHash;\r\n  // number of all courses + id of the course\r\n  uint private totalOwnedCourses;\r\n\r\n  address payable private owner;\r\n\r\n//-------------------------------------------------- E R R O R   C A S E S *************************\r\n\r\n  /// Course has invalid state!\r\n  error InvalidState();\r\n\r\n  /// Course is not created!\r\n  error CourseIsNotCreated();\r\n\r\n  /// Course has already a Owner!\r\n  error CourseHasOwner();\r\n  \r\n  /// Only owner has an access!\r\n  error OnlyOwner();\r\n\r\n  /// Sender is not course owner!\r\n  error SenderIsNotCourseOwner();\r\n\r\n//-------------------------------------------------- E R R O R   C A S E S *************************\r\n\r\n//-------------------------------------------------- F U N C T I O N S *************************\r\n\r\n\r\n  receive() external payable {}\r\n\r\n  function withdraw(uint amount) external onlyOwner {\r\n    (bool success, ) = owner.call{value: amount}(\"\");\r\n    require(success, \"Transfer failed.\");\r\n  }\r\n\r\n\r\n  //address(this).balance smart contracttaki bakiyeyi gsterir\r\n  function emergencyWithdraw() external onlyOwner {\r\n    isStopped = true;\r\n    (bool success, ) = owner.call{value: address(this).balance}(\"\");\r\n    require(success, \"Transfer failed.\");\r\n  }\r\n\r\n\r\n  // Contract yok ettiinde ownera paray gnder demek\r\n  function selfDestruct() external onlyWhenStopped onlyOwner {\r\n    selfdestruct(owner);\r\n  }\r\n\r\n\r\n  function stopContract() external onlyOwner {\r\n    isStopped = true;\r\n  }\r\n\r\n\r\n  function resumeContract() external onlyOwner {\r\n    isStopped = false;\r\n  }\r\n\r\n  \r\n  function transferOwnership(address newOwner) external onlyOwner {\r\n    setContractOwner(newOwner);\r\n  }\r\n\r\n\r\n  function getContractOwner() public view returns (address) {\r\n    return owner;\r\n  }\r\n\r\n\r\n  function setContractOwner(address newOwner) private {\r\n    owner = payable(newOwner);\r\n  }\r\n\r\n// 0x00000000000000000000000000003130,\r\n// 0x0000000000000000000000000000313000000000000000000000000000003130\r\n  function purchaseCourse( bytes16 courseId, bytes32 proof)  external payable onlyWhenNotStopped{\r\n\r\n    bytes32 courseHash = keccak256(abi.encodePacked(courseId, msg.sender));\r\n    \r\n    if (hasCourseOwnership(courseHash)) {\r\n      revert CourseHasOwner();\r\n    }\r\n\r\n    uint id = totalOwnedCourses++;\r\n    ownedCourseHash[id] = courseHash;\r\n    ownedCourses[courseHash] = Course({\r\n      id: id,\r\n      price: msg.value,\r\n      proof: proof,\r\n      owner: msg.sender,\r\n      state: State.Purchased\r\n    });\r\n  }\r\n\r\n  function repurchaseCourse(bytes32 courseHash) external payable onlyWhenNotStopped{\r\n    if (!isCourseCreated(courseHash)) {\r\n      revert CourseIsNotCreated();\r\n    }\r\n\r\n    if (!hasCourseOwnership(courseHash)) {\r\n      revert SenderIsNotCourseOwner();\r\n    }\r\n\r\n    Course storage course = ownedCourses[courseHash];\r\n\r\n    if (course.state != State.Deactivated) {\r\n      revert InvalidState();\r\n    }\r\n\r\n    course.state = State.Purchased;\r\n    course.price = msg.value;\r\n  }\r\n\r\n    function activateCourse(bytes32 courseHash) external onlyWhenNotStopped onlyOwner {\r\n    if (!isCourseCreated(courseHash)) {\r\n      revert CourseIsNotCreated();\r\n    }\r\n\r\n    Course storage course = ownedCourses[courseHash];\r\n\r\n    if (course.state != State.Purchased) {\r\n      revert InvalidState();\r\n    }\r\n\r\n    course.state = State.Activated;\r\n  }\r\n\r\n  function deactivateCourse(bytes32 courseHash) external onlyWhenNotStopped onlyOwner {\r\n    if (!isCourseCreated(courseHash)) {\r\n      revert CourseIsNotCreated();\r\n    }\r\n\r\n    Course storage course = ownedCourses[courseHash];\r\n\r\n    if (course.state != State.Purchased) {\r\n      revert InvalidState();\r\n    }\r\n\r\n    // I F   D E A C T I V A T E D   S E N D   E T H E R   B A C K   T O   U S E R ------------\r\n    (bool success, ) = course.owner.call{value: course.price}(\"\");\r\n    require(success, \"Transfer failed!\");\r\n\r\n    course.state = State.Deactivated;\r\n    course.price = 0;\r\n  }\r\n\r\n  function isCourseCreated(bytes32 courseHash)private view\r\n    returns (bool)\r\n  {\r\n    return ownedCourses[courseHash].owner != 0x0000000000000000000000000000000000000000;\r\n  }\r\n\r\n\r\n  function getCourseCount() external view returns (uint) {\r\n    return totalOwnedCourses;\r\n  }\r\n\r\n  function getCourseHashAtIndex(uint index) external view returns (bytes32){\r\n    return ownedCourseHash[index];\r\n  }\r\n\r\n  function getCourseByHash(bytes32 courseHash) external view returns (Course memory) {\r\n    return ownedCourses[courseHash];\r\n  }\r\n\r\n  function hasCourseOwnership(bytes32 courseHash)private view returns (bool){\r\n    return ownedCourses[courseHash].owner == msg.sender;\r\n  }\r\n\r\n  //-------------------------------------------------- F U N C T I O N S *************************\r\n}",
  "sourcePath": "C:\\Users\\guler\\blockchain\\marketplace-eth\\contracts\\CourseMarketplace.sol",
  "compiler": {
    "name": "solc",
    "version": "0.8.13+commit.abaa5c0e.Emscripten.clang"
  },
  "schemaVersion": "3.4.7",
  "updatedAt": "2022-05-08T01:52:21.252Z",
  "networkType": "ethereum",
  "devdoc": {
    "kind": "dev",
    "methods": {},
    "version": 1
  },
  "userdoc": {
    "errors": {
      "CourseHasOwner()": [
        {
          "notice": "Course has already a Owner!"
        }
      ],
      "CourseIsNotCreated()": [
        {
          "notice": "Course is not created!"
        }
      ],
      "InvalidState()": [
        {
          "notice": "Course has invalid state!"
        }
      ],
      "OnlyOwner()": [
        {
          "notice": "Only owner has an access!"
        }
      ],
      "SenderIsNotCourseOwner()": [
        {
          "notice": "Sender is not course owner!"
        }
      ]
    },
    "kind": "user",
    "methods": {},
    "version": 1
  }
}